{
  "contractName": "Oracle",
  "abi": [
    {
      "inputs": [],
      "payable": false,
      "stateMutability": "nonpayable",
      "type": "constructor"
    },
    {
      "anonymous": false,
      "inputs": [
        {
          "indexed": false,
          "internalType": "uint256",
          "name": "_uid",
          "type": "uint256"
        },
        {
          "indexed": false,
          "internalType": "string",
          "name": "winner",
          "type": "string"
        }
      ],
      "name": "DeclareWinner",
      "type": "event"
    },
    {
      "constant": true,
      "inputs": [],
      "name": "matchCount",
      "outputs": [
        {
          "internalType": "uint256",
          "name": "",
          "type": "uint256"
        }
      ],
      "payable": false,
      "stateMutability": "view",
      "type": "function"
    },
    {
      "constant": true,
      "inputs": [],
      "name": "owner",
      "outputs": [
        {
          "internalType": "address payable",
          "name": "",
          "type": "address"
        }
      ],
      "payable": false,
      "stateMutability": "view",
      "type": "function"
    },
    {
      "constant": true,
      "inputs": [],
      "name": "testConnection",
      "outputs": [
        {
          "internalType": "bool",
          "name": "",
          "type": "bool"
        }
      ],
      "payable": false,
      "stateMutability": "pure",
      "type": "function"
    },
    {
      "constant": false,
      "inputs": [
        {
          "internalType": "string",
          "name": "name",
          "type": "string"
        },
        {
          "internalType": "uint256",
          "name": "winner",
          "type": "uint256"
        }
      ],
      "name": "addMatch",
      "outputs": [
        {
          "internalType": "bool",
          "name": "success",
          "type": "bool"
        }
      ],
      "payable": false,
      "stateMutability": "nonpayable",
      "type": "function"
    },
    {
      "constant": false,
      "inputs": [
        {
          "internalType": "uint256",
          "name": "_matchid",
          "type": "uint256"
        },
        {
          "internalType": "uint256",
          "name": "_chosenWinner",
          "type": "uint256"
        }
      ],
      "name": "isWinner",
      "outputs": [
        {
          "internalType": "bool",
          "name": "",
          "type": "bool"
        }
      ],
      "payable": false,
      "stateMutability": "nonpayable",
      "type": "function"
    }
  ],
  "bytecode": "0x6080604052735660df1681a32e70704439e9243b1b91c369580e600160006101000a81548173ffffffffffffffffffffffffffffffffffffffff021916908373ffffffffffffffffffffffffffffffffffffffff16021790555034801561006557600080fd5b506100ac6040518060400160405280600981526020017f4f4449574332303230000000000000000000000000000000000000000000000081525060016100b260201b60201c565b5061028b565b6000600160009054906101000a900473ffffffffffffffffffffffffffffffffffffffff1673ffffffffffffffffffffffffffffffffffffffff163373ffffffffffffffffffffffffffffffffffffffff1614610177576040517f08c379a000000000000000000000000000000000000000000000000000000000815260040180806020018281038252601b8152602001807f4f6e6c79206f776e65722063616e20637265617465206d61746368000000000081525060200191505060405180910390fd5b600260008154809291906001019190505550604051806040016040528084815260200183815250600080600254815260200190815260200160002060008201518160000190805190602001906101ce9291906101e6565b50602082015181600101559050506001905092915050565b828054600181600116156101000203166002900490600052602060002090601f016020900481019282601f1061022757805160ff1916838001178555610255565b82800160010185558215610255579182015b82811115610254578251825591602001919060010190610239565b5b5090506102629190610266565b5090565b61028891905b8082111561028457600081600090555060010161026c565b5090565b90565b6104898061029a6000396000f3fe608060405234801561001057600080fd5b50600436106100575760003560e01c80633412a15c1461005c57806379c4264b1461007e5780638da5cb5b1461009c578063c98bd7da146100e6578063d7a76d2c14610136575b600080fd5b610064610213565b604051808215151515815260200191505060405180910390f35b61008661021c565b6040518082815260200191505060405180910390f35b6100a4610222565b604051808273ffffffffffffffffffffffffffffffffffffffff1673ffffffffffffffffffffffffffffffffffffffff16815260200191505060405180910390f35b61011c600480360360408110156100fc57600080fd5b810190808035906020019092919080359060200190929190505050610248565b604051808215151515815260200191505060405180910390f35b6101f96004803603604081101561014c57600080fd5b810190808035906020019064010000000081111561016957600080fd5b82018360208201111561017b57600080fd5b8035906020019184600183028401116401000000008311171561019d57600080fd5b91908080601f016020809104026020016040519081016040528093929190818152602001838380828437600081840152601f19601f8201169050808301925050505050505091929192908035906020019092919050505061027b565b604051808215151515815260200191505060405180910390f35b60006001905090565b60025481565b600160009054906101000a900473ffffffffffffffffffffffffffffffffffffffff1681565b6000816000808581526020019081526020016000206001015414156102705760019050610275565b600090505b92915050565b6000600160009054906101000a900473ffffffffffffffffffffffffffffffffffffffff1673ffffffffffffffffffffffffffffffffffffffff163373ffffffffffffffffffffffffffffffffffffffff1614610340576040517f08c379a000000000000000000000000000000000000000000000000000000000815260040180806020018281038252601b8152602001807f4f6e6c79206f776e65722063616e20637265617465206d61746368000000000081525060200191505060405180910390fd5b600260008154809291906001019190505550604051806040016040528084815260200183815250600080600254815260200190815260200160002060008201518160000190805190602001906103979291906103af565b50602082015181600101559050506001905092915050565b828054600181600116156101000203166002900490600052602060002090601f016020900481019282601f106103f057805160ff191683800117855561041e565b8280016001018555821561041e579182015b8281111561041d578251825591602001919060010190610402565b5b50905061042b919061042f565b5090565b61045191905b8082111561044d576000816000905550600101610435565b5090565b9056fea265627a7a72315820960432792f4c427c2cb31369fe7ae1906250a58aac6737c14d32f8aab47bf98f64736f6c634300050c0032",
  "source": "pragma solidity ^0.5.0;\n\ncontract Oracle {\n\n    struct Match {\n        string name;\n        uint winner;\n    }\n\n    mapping(uint => Match) private matches;\n\n    // create a var to store the store owner address\n    address payable public owner = address(0x5660df1681a32E70704439E9243b1B91c369580e);\n\n    uint public matchCount;\n\n    event DeclareWinner(uint256 _uid, string winner);\n\n    constructor () public {\n        addMatch(\"ODIWC2020\", 1);\n    }\n\n    modifier onlyOwner() {\n        // ensure the store owner is the msg.sender\n        require(msg.sender == owner, \"Only owner can create match\");\n        _;\n    }\n\n    function testConnection() public pure returns (bool) {\n        return true;\n    }\n\n    function addMatch(string memory name, uint256 winner) public onlyOwner returns (bool success) {\n        matchCount++;\n        matches[matchCount] = Match(name, winner);\n        return true;\n    }\n\n    function isWinner(uint256 _matchid, uint256 _chosenWinner) public returns(bool) {\n        if(matches[_matchid].winner == _chosenWinner){\n            return true;\n        } else {\n            return false;\n        }\n    }\n\n\n\n}",
  "sourcePath": "/Users/stanlyjohnson/Documents/projects/eth-oracle-example/contracts/Oracle.sol",
  "compiler": {
    "name": "solc",
    "version": "0.5.12+commit.7709ece9.Emscripten.clang"
  },
  "schemaVersion": "3.0.19",
  "updatedAt": "2020-07-18T02:53:33.145Z",
  "networkType": "ethereum",
  "devdoc": {
    "methods": {}
  },
  "userdoc": {
    "methods": {}
  }
}