{
  "contractName": "Prediction",
  "abi": [
    {
      "inputs": [],
      "payable": false,
      "stateMutability": "nonpayable",
      "type": "constructor"
    },
    {
      "constant": true,
      "inputs": [],
      "name": "itemCount",
      "outputs": [
        {
          "internalType": "uint256",
          "name": "",
          "type": "uint256"
        }
      ],
      "payable": false,
      "stateMutability": "view",
      "type": "function"
    },
    {
      "constant": true,
      "inputs": [],
      "name": "owner",
      "outputs": [
        {
          "internalType": "address payable",
          "name": "",
          "type": "address"
        }
      ],
      "payable": false,
      "stateMutability": "view",
      "type": "function"
    },
    {
      "constant": true,
      "inputs": [
        {
          "internalType": "address",
          "name": "",
          "type": "address"
        }
      ],
      "name": "userBets",
      "outputs": [
        {
          "internalType": "address",
          "name": "user",
          "type": "address"
        },
        {
          "internalType": "uint256",
          "name": "matchId",
          "type": "uint256"
        },
        {
          "internalType": "uint256",
          "name": "amount",
          "type": "uint256"
        },
        {
          "internalType": "uint256",
          "name": "chosenWinner",
          "type": "uint256"
        },
        {
          "internalType": "bool",
          "name": "rewardPaid",
          "type": "bool"
        }
      ],
      "payable": false,
      "stateMutability": "view",
      "type": "function"
    },
    {
      "constant": false,
      "inputs": [
        {
          "internalType": "address",
          "name": "_oracleAddress",
          "type": "address"
        }
      ],
      "name": "setOracleAddress",
      "outputs": [
        {
          "internalType": "bool",
          "name": "",
          "type": "bool"
        }
      ],
      "payable": false,
      "stateMutability": "nonpayable",
      "type": "function"
    },
    {
      "constant": false,
      "inputs": [
        {
          "internalType": "uint256",
          "name": "_matchid",
          "type": "uint256"
        },
        {
          "internalType": "uint256",
          "name": "_chosenWinner",
          "type": "uint256"
        },
        {
          "internalType": "uint256",
          "name": "_amount",
          "type": "uint256"
        }
      ],
      "name": "createBet",
      "outputs": [
        {
          "internalType": "bool",
          "name": "",
          "type": "bool"
        }
      ],
      "payable": true,
      "stateMutability": "payable",
      "type": "function"
    },
    {
      "constant": false,
      "inputs": [
        {
          "internalType": "uint256",
          "name": "_matchid",
          "type": "uint256"
        }
      ],
      "name": "withdrawWinning",
      "outputs": [
        {
          "internalType": "bool",
          "name": "",
          "type": "bool"
        }
      ],
      "payable": false,
      "stateMutability": "nonpayable",
      "type": "function"
    }
  ],
  "bytecode": "0x608060405260008060006101000a81548173ffffffffffffffffffffffffffffffffffffffff021916908373ffffffffffffffffffffffffffffffffffffffff1602179055506000809054906101000a900473ffffffffffffffffffffffffffffffffffffffff16600160006101000a81548173ffffffffffffffffffffffffffffffffffffffff021916908373ffffffffffffffffffffffffffffffffffffffff16021790555064e8d4a51000600255735660df1681a32e70704439e9243b1b91c369580e600360006101000a81548173ffffffffffffffffffffffffffffffffffffffff021916908373ffffffffffffffffffffffffffffffffffffffff16021790555034801561011157600080fd5b506109bd806101216000396000f3fe6080604052600436106100555760003560e01c80634c69c00f1461005a5780634e92a646146100c35780636bfb0d01146101745780638da5cb5b1461019f5780639062ce7d146101f6578063d9b3c87514610250575b600080fd5b34801561006657600080fd5b506100a96004803603602081101561007d57600080fd5b81019080803573ffffffffffffffffffffffffffffffffffffffff1690602001909291905050506102a3565b604051808215151515815260200191505060405180910390f35b3480156100cf57600080fd5b50610112600480360360208110156100e657600080fd5b81019080803573ffffffffffffffffffffffffffffffffffffffff1690602001909291905050506104b4565b604051808673ffffffffffffffffffffffffffffffffffffffff1673ffffffffffffffffffffffffffffffffffffffff168152602001858152602001848152602001838152602001821515151581526020019550505050505060405180910390f35b34801561018057600080fd5b50610189610517565b6040518082815260200191505060405180910390f35b3480156101ab57600080fd5b506101b461051d565b604051808273ffffffffffffffffffffffffffffffffffffffff1673ffffffffffffffffffffffffffffffffffffffff16815260200191505060405180910390f35b6102366004803603606081101561020c57600080fd5b81019080803590602001909291908035906020019092919080359060200190929190505050610543565b604051808215151515815260200191505060405180910390f35b34801561025c57600080fd5b506102896004803603602081101561027357600080fd5b8101908080359060200190929190505050610744565b604051808215151515815260200191505060405180910390f35b6000600360009054906101000a900473ffffffffffffffffffffffffffffffffffffffff1673ffffffffffffffffffffffffffffffffffffffff163373ffffffffffffffffffffffffffffffffffffffff1614610368576040517f08c379a000000000000000000000000000000000000000000000000000000000815260040180806020018281038252601b8152602001807f4f6e6c79206f776e65722063616e20637265617465206173736574000000000081525060200191505060405180910390fd5b816000806101000a81548173ffffffffffffffffffffffffffffffffffffffff021916908373ffffffffffffffffffffffffffffffffffffffff1602179055506000809054906101000a900473ffffffffffffffffffffffffffffffffffffffff16600160006101000a81548173ffffffffffffffffffffffffffffffffffffffff021916908373ffffffffffffffffffffffffffffffffffffffff160217905550600160009054906101000a900473ffffffffffffffffffffffffffffffffffffffff1673ffffffffffffffffffffffffffffffffffffffff16633412a15c6040518163ffffffff1660e01b815260040160206040518083038186803b15801561047257600080fd5b505afa158015610486573d6000803e3d6000fd5b505050506040513d602081101561049c57600080fd5b81019080805190602001909291905050509050919050565b60046020528060005260406000206000915090508060000160009054906101000a900473ffffffffffffffffffffffffffffffffffffffff16908060010154908060020154908060030154908060040160009054906101000a900460ff16905085565b60055481565b600360009054906101000a900473ffffffffffffffffffffffffffffffffffffffff1681565b60006002543410156105bd576040517f08c379a000000000000000000000000000000000000000000000000000000000815260040180806020018281038252600e8152602001807f5072696365204d69736d6174636800000000000000000000000000000000000081525060200191505060405180910390fd5b813414610632576040517f08c379a000000000000000000000000000000000000000000000000000000000815260040180806020018281038252600e8152602001807f5072696365204d69736d6174636800000000000000000000000000000000000081525060200191505060405180910390fd5b6040518060a001604052803373ffffffffffffffffffffffffffffffffffffffff16815260200185815260200183815260200184815260200160001515815250600460003373ffffffffffffffffffffffffffffffffffffffff1673ffffffffffffffffffffffffffffffffffffffff16815260200190815260200160002060008201518160000160006101000a81548173ffffffffffffffffffffffffffffffffffffffff021916908373ffffffffffffffffffffffffffffffffffffffff16021790555060208201518160010155604082015181600201556060820151816003015560808201518160040160006101000a81548160ff021916908315150217905550905050600190509392505050565b60008060009054906101000a900473ffffffffffffffffffffffffffffffffffffffff16600160006101000a81548173ffffffffffffffffffffffffffffffffffffffff021916908373ffffffffffffffffffffffffffffffffffffffff1602179055506000600160009054906101000a900473ffffffffffffffffffffffffffffffffffffffff1673ffffffffffffffffffffffffffffffffffffffff1663c98bd7da84600460003373ffffffffffffffffffffffffffffffffffffffff1673ffffffffffffffffffffffffffffffffffffffff168152602001908152602001600020600301546040518363ffffffff1660e01b81526004018083815260200182815260200192505050602060405180830381600087803b15801561086957600080fd5b505af115801561087d573d6000803e3d6000fd5b505050506040513d602081101561089357600080fd5b810190808051906020019092919050505090506001151581151514610920576040517f08c379a000000000000000000000000000000000000000000000000000000000815260040180806020018281038252600a8152602001807f4e6f742057696e6e65720000000000000000000000000000000000000000000081525060200191505060405180910390fd5b3373ffffffffffffffffffffffffffffffffffffffff166108fc3073ffffffffffffffffffffffffffffffffffffffff16319081150290604051600060405180830381858888f1935050505015801561097d573d6000803e3d6000fd5b50600191505091905056fea265627a7a72315820a22a010d5f8ec3d169ba393a8400485acfcd7073c4e871dd4370a7b113ad136264736f6c634300050c0032",
  "source": "pragma solidity ^0.5.0;\n\nimport \"./Oracle.sol\";\n\ncontract Prediction {\n\n\n    //boxing results oracle\n    address internal cricOracleAddr = address(0);\n    Oracle internal cricOracle = Oracle(cricOracleAddr);\n\n    //constants\n    uint internal minimumBet = 1000000000000;\n\n    // create a var to store the store owner address\n    address payable public owner = address(0x5660df1681a32E70704439E9243b1B91c369580e);\n\n    struct Bet {\n        address user;\n        uint matchId;\n        uint amount;\n        uint chosenWinner;\n        bool rewardPaid;\n    }\n\n    //mappings\n    mapping(address => Bet) public userBets;\n\n    // Store Items Count\n    uint public itemCount;\n\n    constructor () public {\n    }\n\n    modifier onlyOwner() {\n        // ensure the store owner is the msg.sender\n        require(msg.sender == owner, \"Only owner can create asset\");\n        _;\n    }\n\n    function setOracleAddress(address _oracleAddress) public onlyOwner returns (bool) {\n        cricOracleAddr = _oracleAddress;\n        cricOracle = Oracle(cricOracleAddr);\n        return cricOracle.testConnection();\n    }\n\n    function createBet(uint256 _matchid, uint256 _chosenWinner, uint256 _amount) public payable returns (bool){\n        require(msg.value >= minimumBet, \"Price Mismatch\");\n        require(msg.value == _amount, \"Price Mismatch\");\n        userBets[msg.sender] = Bet(msg.sender, _matchid, _amount, _chosenWinner, false);\n        return true;\n    }\n\n    function withdrawWinning(uint256 _matchid) public returns (bool){\n        cricOracle = Oracle(cricOracleAddr);\n        bool matchWinner = cricOracle.isWinner(_matchid, userBets[msg.sender].chosenWinner);\n        require(matchWinner == true, \"Not Winner\");\n        msg.sender.transfer(address(this).balance);\n        return true;\n    }\n\n\n// end of market smart contract\n}\n\n",
  "sourcePath": "/Users/stanlyjohnson/Documents/projects/eth-oracle-example/contracts/Prediction.sol",
  "compiler": {
    "name": "solc",
    "version": "0.5.12+commit.7709ece9.Emscripten.clang"
  },
  "schemaVersion": "3.0.19",
  "updatedAt": "2020-07-18T02:53:32.890Z",
  "networkType": "ethereum",
  "devdoc": {
    "methods": {}
  },
  "userdoc": {
    "methods": {}
  }
}